:10000000F8FF0020110400007F2400007F2400007E
:100010007F2400007F2400007F2400007F24000054
:100020007F2400007F2400007F2400007F24000044
:100030007F2400007F2400007F2400007F24000034
:100040007F2400007F2400007F2400007F24000024
:100050007F2400007F2400007F2400007F24000014
:100060007F2400007F2400007F2400007F24000004
:100070007F2400007F2400007F2400007F240000F4
:100080007F2400007F2400007F2400007F240000E4
:100090007F2400007F2400007F2400007F240000D4
:1000A0007F2400007F2400007F2400007F240000C4
:1000B0007F2400007F2400007F2400007F240000B4
:1000C0007F2400007F2400007F2400007F240000A4
:1000D0007F2400007F2400007F2400007F24000094
:1000E0007F2400007F2400007F2400007F24000084
:1000F0007F2400003F3C00007F240000613C0000A2
:100100007F240000833C00007F240000A53C000009
:100110007F240000C73C00007F240000E93C000071
:100120007F2400007F2400007F2400007F24000043
:100130007F2400007F240000FF3400000F35000002
:100140001F3500007F2400007F2400007F24000072
:100150009D0E0000F10E0000B9380000C738000005
:100160007F2400007F2400007F2400007F24000003
:100170007F2400007F2400007F2400007F240000F3
:100180007F2400007F2400007F2400007F240000E3
:100190007F240000373900007F240000C31D0000C9
:1001A000210F0000011E0000CD1200003F1E0000C4
:1001B0007F2400007F2400007F2400007F240000B3
:1001C0007F2400007F2400007F2400007F240000A3
:1001D0007F2400007F2400007F2400007F24000093
:1001E0007F2400007F2400007F2400007F24000083
:10040000FFFFFFFFFFFFFFFFFFFFFFFFFEFFFFFFFD
:100410004FF000004FF000014FF000024FF00003DA
:100420004FF000044FF000054FF000064FF00007BA
:100430004FF000084FF000094FF0000A4FF0000B9A
:100440004FF0000C62B605F071FEFEE780B58A221F
:100450000021032001F087FC8A220121032001F002
:1004600082FC8A220221032001F07DFC8A220721DE
:10047000032001F078FC002301220321DFF8B409F6
:1004800001F008FC002301220421DFF8A80901F093
:1004900001FC002301220521DFF8980901F0FAFB95
:1004A000002301220621DFF88C0901F0F3FB8A22E8
:1004B0001421012001F057FC8A221521012001F0AE
:1004C00052FC8A221621012001F04DFC01BD80B5AD
:1004D0008A221421012001F046FC8A2215210120E4
:1004E00001F041FC8A221621012001F03CFC01BDF3
:1004F00038B5DFF844194988DFF83C291180DFF866
:1005000038198988DFF830295180DFF82C19C9881B
:10051000DFF824299180DFF820190989DFF81829EC
:10052000D180DFF814190881DFF80C09B0F9080050
:10053000142805D1DFF80009C088DFF8FC1808810D
:10054000DFF8F408B0F90800DFF8EC18B1F906108C
:10055000401A801C052805D2DFF8DC08C088DFF8C7
:10056000D8180881DFF8D4080068DFF8CC18B1F992
:100570000810DFF8C428B2F90620891A884210DB77
:10058000DFF8B408B0F90800DFF8AC18B1F90610CC
:10059000401ADFF8A81809685FF0FF32514388421B
:1005A00005DADFF89408C088DFF88C180881DFF8D6
:1005B0008808B0F9080001F079FC5FF06632DFF8D6
:1005C000803801F08BFC04000D00DFF86C08B0F9F6
:1005D000060001F06BFC5FF03332DFF8683801F0A1
:1005E0007DFC22002B0001F05BFD04000D00DFF814
:1005F0004808B0F9040001F059FCDFF84C28DFF896
:100600004C3801F06BFC22002B0001F049FD040086
:100610000D00DFF82408B0F9020001F047FCDFF814
:100620003028DFF8303801F059FC22002B0001F0AF
:1006300037FD04000D00DFF80008B0F9000001F0FC
:1006400035FCDFF80C28DFF8103801F047FC2200F9
:100650002B0001F025FD01F097FDDFF8DC17088184
:10066000DFF8F8074068DFF8F4170860DFF8F007F4
:10067000B0F90000DFF8EC170968401ADFF8B81786
:10068000B1F90810884212DADFF8AC07B0F90800B7
:10069000DFF8CC17B1F90010DFF8C827126851183D
:1006A000884204DA0120DFF8B417486003E0002034
:1006B000DFF8A8174860DFF88007B0F9080032BDFE
:1006C0002DE9F04705000E0092461C00099F280006
:1006D00001F086FD80468946380001F0E7FB020004
:1006E0000B000020DFF8801701F0A6FD42464B46C4
:1006F00001F0F4FB01F0C4FE0500300001F070FDD4
:1007000080468946B7F1320001F0D0FB02000B00B1
:100710000020DFF8581701F08FFD42464B4601F0EC
:10072000DDFB01F0ADFE0600BDF9200007FB07F17F
:1007300010FB00F0081A01F0EBFEDFF834178860B8
:10074000380001F0B3FB0022DFF8283701F074FD18
:1007500002000B0090469946DFF81407806801F00C
:100760003FFD42464B4601F0EBFE1FD2DFF800078B
:100770008068002101F0FCFE18D2280001F030FD55
:10078000DFF8C426DFF8C43601F0A8FB01F078FEDC
:100790000500300001F024FDDFF8AC26DFF8D83684
:1007A00001F09CFB01F06CFE0600FBE2380001F05A
:1007B0007DFB0022DFF8C43601F03EFD02000B0095
:1007C00090469946DFF8A806806801F009FD424688
:1007D0004B4601F0B5FE19D2DFF89406806800217F
:1007E00001F0C6FE12D2280001F0FAFCDFF858260C
:1007F000DFF8583601F072FB01F042FE05005FF0B1
:100800007E50310001F0C6FE0600CBE2380001F058
:100810004DFB5FF06632DFF8683601F00DFD020037
:100820000B0090469946DFF84806806801F0D8FC36
:1008300042464B4601F084FE19D2DFF83406806848
:10084000002101F095FE12D2280001F0C9FCDFF86A
:10085000F825DFF8F83501F041FB01F011FE050045
:100860005FF07E50310001F095FE06009AE23800FC
:1008700001F01CFB0022DFF80C3601F0DDFC020069
:100880000B0090469946DFF8E805806801F0A8FC67
:1008900042464B4601F054FE19D2DFF8D405806879
:1008A000002101F065FE12D2280001F099FCDFF86A
:1008B0009825DFF8D43501F011FB01F0E1FD0500CA
:1008C0005FF07E50310001F065FE06006AE2022012
:1008D00097FBF0F001F01CFE0100DFF89405806842
:1008E00001F0C4FE1ED2DFF888058068002101F007
:1008F0003FFE17D2280001F073FC0022DFF88C3590
:1009000001F0ECFA01F0BCFD0500300001F068FCDC
:100910005FF03332DFF8783501F0E0FA01F0B0FD36
:1009200006003FE2380001F0C1FADFF81C25DFF8CD
:10093000643501F081FC02000B0090469946DFF817
:100940003005806801F04CFC42464B4601F0F8FD52
:100950001FD2DFF81C058068002101F009FE18D2C3
:10096000280001F03DFCDFF8E024DFF80C3501F051
:10097000B5FA01F085FD0500300001F031FC5FF0B3
:100980006632DFF8143501F0A9FA01F079FD0600AE
:1009900008E2380001F08AFA5FF06632DFF8F834D6
:1009A00001F04AFC02000B0090469946DFF8C004B3
:1009B000806801F015FC42464B4601F0C1FD1FD294
:1009C000DFF8AC048068002101F0D2FD18D22800C5
:1009D00001F006FCDFF83825DFF8103501F07EFA6B
:1009E00001F04EFD0500300001F0FAFBDFF858245D
:1009F000DFF8A03401F072FA01F042FD0600D1E107
:100A0000380001F053FA5FF03332DFF8843401F03C
:100A100013FC02000B0090469946DFF854048068EE
:100A200001F0DEFB42464B4601F08AFD1FD2DFF8A3
:100A300040048068002101F09BFD18D2280001F0DD
:100A4000CFFBDFF8CC24DFF8CC3401F047FA01F01B
:100A500017FD0500300001F0C3FBDFF8B424DFF818
:100A6000B43401F03BFA01F00BFD06009AE1DFF827
:100A70000004806801F0B4FB02000B009046994628
:100A8000380001F013FA5FF03332DFF8043401F07C
:100A9000D3FB42464B4601F053FD19D2DFF8D00399
:100AA0008068002101F064FD12D2280001F098FB5B
:100AB000DFF85C24DFF85C3401F010FA01F0E0FCB0
:100AC00005005FF08040310001F064FD060069E13F
:100AD000DFF89C03806801F083FB02000B00904666
:100AE0009946784201F0E2F90022DFF8883301F0FC
:100AF000A3FB42464B4601F023FD14D2280001F02F
:100B00006FFBD14AD14B01F0E9F901F0B9FC0500C6
:100B1000300001F065FBCC4AD74B01F0DFF901F062
:100B2000AFFC06003EE1D248806801F059FB0200AC
:100B30000B0090469946784201F0B8F90022CF4B5D
:100B400001F07AFB42464B4601F0FAFC10D2280035
:100B500001F046FBBC4ABD4B01F0C0F901F090FC2E
:100B600005005FF07E50310001F014FD060019E130
:100B7000BF48806801F034FB02000B0090469946A4
:100B8000784201F093F95FF06632BD4B01F054FBFF
:100B900042464B4601F0D4FC10D2280001F020FB65
:100BA000A94AAA4B01F09AF901F06AFC05005FF02E
:100BB0007E50310001F0EEFC0600F3E0AC488068A6
:100BC00001F00EFB02000B0090469946784201F0BE
:100BD0006DF90022AB4B01F02FFB42464B4601F072
:100BE000AFFC10D2280001F0FBFA974A974B01F0B6
:100BF00075F901F045FC05005FF07E50310001F011
:100C0000C9FC0600CEE07842022190FBF1F001F031
:100C10007FFC9749896801F029FD17D2280001F06F
:100C2000DFFA5FF03332DFF8F03201F057F901F00C
:100C300027FC0500300001F0D3FA5FF03332944B0B
:100C400001F04CF901F01CFC0600ABE0884880681C
:100C500001F0C6FA02000B0090469946784201F076
:100C600025F9794ADFF82C3201F0E6FA42464B4684
:100C700001F066FC18D2280001F0B2FA5FF03332BE
:100C8000DFF8983201F02AF901F0FAFB0500300094
:100C900001F0A6FA5FF06632DFF8FC3101F01EF9D0
:100CA00001F0EEFB06007DE07148806801F098FAE3
:100CB00002000B0090469946784201F0F7F85FF089
:100CC0006632DFF8D43101F0B7FA42464B4601F004
:100CD00037FC16D2280001F083FA5FF06632584BD9
:100CE00001F0FCF801F0CCFB0500300001F078FACF
:100CF000554ADFF8A03101F0F1F801F0C1FB060020
:100D000050E05B48806801F06BFA02000B009046EF
:100D10009946784201F0CAF85FF033325C4B01F03B
:100D20008BFA42464B4601F00BFC16D2280001F02C
:100D300057FA454A504B01F0D1F801F0A1FB0500EC
:100D4000300001F04DFADFF8C821DFF8C83101F0BA
:100D5000C5F801F095FB060024E0784201F0A6F802
:100D60005FF033324A4B01F067FA02000B00904605
:100D700099463F48806801F033FA42464B4601F0FD
:100D8000DFFB0FD25FF07E50290001F003FC05006D
:100D9000300001F025FA00223A4B01F09FF801F0F3
:100DA0006FFB06002000310001F072FC5FF07E5105
:100DB00001F0ECFC06005046210001F069FC310016
:100DC00001F0E4FC290001F0E5FB2949896801F004
:100DD000E1FB06005FF08040514601F0DBFB2100A3
:100DE00001F056FC5FF07E5101F0D0FC290001F0CB
:100DF000D1FB1F49496801F0CDFB0100300001F033
:100E000007FD06001A480068290001F0C3FB51469F
:100E100001F0C0FB210001F03BFC310001F0B6FC09
:100E200013494968124A116011498968104A516092
:100E3000BDE8F087C0F00F40DC04FF1F5C04FF1F1B
:100E40006666E63F3333C33F9A9999999999B93FBA
:100E50007B14AE47E17AA43FE17A843F8C04FF1F04
:100E60006004FF1F5404FF1F00C06240000059408F
:100E7000E804FF1F000024409999E93F0000144056
:100E800066660A40000004409999C93F0000E03FAF
:100E90003333F33F9999F93F6666F63F80B5DFF843
:100EA000F806006850F00100DFF8EC160860022137
:100EB000032001F047FDDFF8E4064068012806D171
:100EC000DFF8C80C0068401CDFF8C01C0860DFF8C1
:100ED000CC060068002808D1DFF8C0064068012869
:100EE00003D10020DFF8A41C086001BDCCCCF43F86
:100EF000DFF8AC06006850F00100DFF8A4160860C7
:100F0000DFF88C0C0068401CDFF8841C0860704718
:100F1000CDCCCCCCCCCCFC3F3333D33F3333E33FCD
:100F200070B51424DFF86C0C00680100E140C807BC
:100F300040F19B810221012001F004FD01F071FECE
:100F4000DFF860260021002001F020FFDFF85806BE
:100F50000068002806D1DFF854260121002001F0A6
:100F600015FF3AE0DFF840060068012806D1DFF8F7
:100F700040260121002001F009FF2EE0DFF82806BD
:100F80000068022806D1DFF82C260121002001F09C
:100F9000FDFE22E0DFF810060068032806D1DFF826
:100FA00018260121002001F0F1FE16E0DFF8F80517
:100FB0000068052806D1DFF804260121002001F091
:100FC000E5FE0AE0DFF8E0050068062805D1DFF855
:100FD000F0250121002001F0D9FEDFF8E8250221EB
:100FE000002001F0D3FEDFF8E0250321002001F00E
:100FF000CDFEDFF8D8250421002001F0C7FEDFF880
:10100000D0250521002001F0C1FEDFF8C82506210A
:10101000002001F0BBFEDFF8C0250721002001F011
:10102000B5FE002000E0401CDFF8701B8842FAD3B8
:10103000002505E0342000F089FE002800D00125BD
:10104000002DF7D09FA1DFF8580B02F05FF89DA1AB
:10105000DFF8500B02F05AF80020DFF84C1B086054
:101060000020DFF8481B08601AE00020DFF8381580
:10107000086000259620DFF8381B08803220DFF852
:10108000341B086001F0CDFDDFF82C2B002100207F
:1010900001F07CFE01220021280000B201F0F4FFE3
:1010A000002D00F0D980FFF7D1F9DFF8000B0068C0
:1010B0000128DAD0DFF8F40A0068022840F0A080A6
:1010C0000120DFF8E4140860002504E0401CDFF88C
:1010D000EC1A8842FAD301F0A4FDDFF8E42A0021DB
:1010E000002001F053FEDFF8DC2A0121002001F08E
:1010F0004DFEDFF8D42A0521002001F047FEDFF87D
:10110000CC2A0621002001F041FE6EA1DFF8900AF2
:1011100001F0FCFF6BA1DFF88C0A01F0F7FF002063
:10112000DFF8841A08600020DFF8801A08600020C9
:1011300000E0401CDFF8641A8842FAD3002605E07C
:10114000352000F003FE002800D00126002EF7D045
:10115000002EA5D0FFF77AF9DFF8742A04210020C9
:1011600001F014FEDFF8382A0421582001F00EFEA9
:1011700055A204216E2001F009FEDFF8300A006854
:10118000DFF82C1A08801E20DFF8281A08600220D9
:1011900001F0F4FF002822D1DFF8100A006864385B
:1011A00065281BD301F03DFDDFF8282A002100202F
:1011B00001F01BFFDFF8202A0221002001F0E6FDEC
:1011C000DFF8182A0321002001F0E0FDDFF8102AE3
:1011D0000521002001F0DAFD002078E7002601203B
:1011E00001F0CCFF0028B3D136A1DFF8B40901F03B
:1011F0008DFFDFF8F0290421582001F0C7FDA7E793
:10120000DFF8A8090068032805D10220DFF8981349
:101210000860002544E7DFF894090068042805D138
:101220000320DFF884130860002539E7DFF87C0924
:101230000068052805D10520DFF86C13086000253B
:101240002EE7DFF86809006806287FF429AF06203A
:10125000D5490860002523E7DFF838090068012137
:10126000A1400843DFF82C1908601524DFF8240991
:1012700000680100E140C8070ED5DFF818090068D2
:101280000121A1400843DFF80C1908600221012068
:1012900001F058FB01F0C5FC1624DFF8F8080068DF
:1012A0000100E140C8070CD5DFF8E808006801211B
:1012B000A1400843DFF8DC1808600221012001F09A
:1012C00041FB70BD000000006D6D000010B50024F2
:1012D000DFF8140900680100E140C80756D5DFF8BF
:1012E000080900680121A1400843DFF8FC180860E4
:1012F0000021002001F026FB002301220021DFF85D
:10130000EC0800F0C7FC002301220121DFF8DC0813
:1013100000F0C0FC002301220221DFF8D00800F019
:10132000B9FC01220321DFF8C40800F0F7FC012218
:101330000421DFF8B80800F0F1FC01220521DFF8F4
:10134000AC0800F0EBFC632000F000FD002803D1A6
:101350000320DFF854180860642000F0F7FC002830
:1013600003D10620DFF840180860652000F0EEFC8D
:10137000002803D10920DFF830180860DFF82808BA
:10138000026884A1DFF81C0801F00EFF0124DFF8D9
:10139000580800680100E140C80756D5DFF8480842
:1013A00000680121A1400843DFF83C1808600021D3
:1013B000012001F0C7FA002301220021DFF82C08E8
:1013C00000F068FC002301220121DFF8200800F072
:1013D00061FC002301220221DFF8100800F05AFC12
:1013E00001220321DFF8040800F098FC0122042107
:1013F000DFF8F80700F092FC01220521DFF8EC0786
:1014000000F08CFC632000F0A1FC002803D1022036
:10141000DFF894170860642000F098FC002803D1DE
:101420000520DFF884170860652000F08FFC002895
:1014300003D10820DFF870170860DFF86C07026836
:1014400054A1DFF8600701F0AFFE0224DFF898072F
:1014500000680100E140C80756D5DFF88C07006836
:101460000121A1400843DFF8801708600021022015
:1014700001F068FA002301220021DFF8700700F074
:1014800009FC002301220121DFF8600700F002FCC3
:10149000002301220221DFF8540700F0FBFB0122A8
:1014A0000321DFF8480700F039FC01220421DFF8AE
:1014B0003C0700F033FC01220521DFF8300700F083
:1014C0002DFC632000F042FC002803D10120DFF84E
:1014D000D8160860642000F039FC002803D10420ED
:1014E000DFF8C4160860652000F030FC002803D146
:1014F0000720DFF8B4160860DFF8AC06026825A103
:10150000DFF8A00601F050FE0724DFF8DC060068D3
:101510000100E140C8072AD5002000E0401CDFF8A8
:10152000D0168842FAD301220721DFF8C00600F066
:10153000F5FB662000F00AFC002803D10020DFF84C
:10154000681608600020DFF860160860DFF85806AB
:10155000026810A1DFF84C0601F026FEDFF88806CD
:1015600000680121A1400843DFF87C1608600020D4
:1015700000E0401CDFF878168842FAD3DFF8241622
:10158000DFF81C0601F02AFE01F036FEDFF81C161B
:10159000086010BD257500000C7103408C04FF1F0E
:1015A0001C7103402C6300005004FF1F44630000C3
:1015B000D46300005C630000746300008C6300006F
:1015C000A4630000E863000010650000FC630000F5
:1015D00010640000246400003864000010B586B078
:1015E00072B6C82001F00CFE00234FF22442002105
:1015F000002001F0ADFE012001F0BEFF01F07CF9FA
:101600000121042001F09EF901F0A2FD64210020D7
:1016100002F01EF96421012002F01AF901F028FB02
:1016200001F018FD642002F061F901F0FAFA0F21CF
:10163000582002F0EBF90E215A2002F0E7F94FF49E
:101640001651042002F0F0F9DFF8A825052100204A
:1016500001F09CFBDFF8A0250321002001F096FBA0
:10166000DFF898250121002001F090FB012405E01E
:10167000342000F06BFB002800D10024002CF7D1AF
:101680004FF4FA7002F032F9FEF721FF62B6DEE0A5
:10169000DFF86C05006806280FD100220021002029
:1016A00001F022FF45F21C70DFF858150860DFF8E2
:1016B000582501215A2001F069FBDFF8F404008865
:1016C000DFF848150988441ADFF844250121002075
:1016D00001F05CFB02225A21DFF8D404B0F90000CB
:1016E00001F0D2FCDFF82C250221002001F04EFB96
:1016F000D6A202216E2001F049FBDFF81C25032150
:10170000002001F043FBD1A203216E2001F03EFB3B
:1017100003225A21DFF8F404B0F9000001F0B4FC10
:10172000DFF8F8240421002001F030FB04225A21C4
:10173000200000B201F0A8FCC4A204216E2001F038
:1017400025FBDFF8DC240521002001F01FFB05222A
:101750005A21DFF8B004006800B201F095FCDFF810
:10176000C4240621002001F011FBDFF824040068E6
:101770000A2190FBF1F2B6A1DFF8AC0401F014FDF0
:101780000A20DFF80C140968DFF80424126892FBC1
:10179000F0F200FB1212AEA1DFF8900401F004FD9C
:1017A000ACA1DFF8840401F019FDDFF8801401F02A
:1017B00015FDDFF8742406215A2001F0E7FAA6A2ED
:1017C0000621782001F0E2FADFF8642407210020E6
:1017D00001F0DCFAA0A20721782001F0D7FADFF8A7
:1017E000AC0300680A2190FBF1F299A1DFF84404F0
:1017F00001F0DAFC0A20DFF894130968DFF88C2383
:10180000126892FBF0F200FB121291A1DFF828049B
:1018100001F0CAFC8FA1DFF81C0401F0DFFCDFF847
:10182000181401F0DBFCDFF80C2407215A2001F02A
:10183000ADFADFF8D803B0F9000010F1C80284A1B6
:1018400002A801F0B1FC02A9042002F0EAF9DFF8D5
:10185000EC030068401CDFF8E4130860022102205A
:1018600001F070F802F0CEFADFF8D4130880DFF848
:10187000D003B0F90000EC2816DBDFF8C403B0F9A0
:10188000000000F013FBDFF8BC23DFF8BC3300F0EE
:1018900025FB0022DFF8B43300F002FC00F074FCFA
:1018A000DFF89C13088015E0DFF89403B0F900001E
:1018B00000F0FCFADFF89823DFF8983300F00EFB15
:1018C0000022DFF8943300F0EBFB00F05DFCDFF862
:1018D00070130880DFF86803B0F90000C82817DA31
:1018E000DFF85C03B0F900000F2110FB01F000F0FD
:1018F000DDFA0022DFF8643300F09EFCDFF860239D
:10190000DFF8603300F0CCFB00F03EFCCC490880EF
:10191000CB48B0F90000FEF7EBFDBC49088001F0B0
:1019200080F9B848006800F0F3FD0400A048B0F961
:1019300000000190B548B0F900000090CA4BCB48B8
:101940000268CB480168CB480068FEF7B9FE210069
:1019500000F01CFF02F082FAAA490860A94800685A
:101960004FF22541884203DB4FF22440A54908602D
:10197000A4480068002802D50020A2490860A048B9
:101980000068052837D14FF4A570BB4908609F480F
:10199000B0F900001A2811DAB848006800281FD1F1
:1019A00010E04EF660220021002001F09DFD4FF472
:1019B000487001F09BFF0020B0490860AF48006804
:1019C0000028EED196207A490880232079490860C2
:1019D0008C48026892B20021002001F085FD04E0ED
:1019E00000220021002001F07FFDA54A01215A209C
:1019F00001F0CCF961E68248006801280FD18148E6
:101A0000026892B20021002001F06EFD0F206949AA
:101A1000086061A201215A2001F0B8F94DE678482A
:101A2000006802281AD146F2D4220021002001F0D9
:101A30005BFD4FF4AF705E4908800F205D49086080
:101A4000904A01215A2001F0A1F936E66D6D00009F
:101A5000257500002E000000730000006848006833
:101A600003287BD1884A01215A2001F08FF9874849
:101A70000068002818D1FA204D49088032204D49CD
:101A800008606048026892B20021002001F02CFD3D
:101A90003E4800681F28FFF610AE01207B49086011
:101AA00000203A49086008E678480068012815D106
:101AB00032203F4908805348026892B2002100203A
:101AC00001F012FD314800681F28FFF6F6AD022034
:101AD0006E49086000202D490860EEE56B480068FB
:101AE000022815D1FA20324908804648026892B28D
:101AF0000021002001F0F8FC244800681F28FFF6B0
:101B0000DCAD032061490860002020490860D4E56D
:101B10005E480068032815D13220254908803948DD
:101B2000026892B20021002001F0DEFC1748006834
:101B30001F28FFF6C2AD0420544908600020134955
:101B40000860BAE55148006804287FF4B6AD4EF647
:101B500060220021002001F0C7FCAEE528480068A3
:101B600000287FF495AD2748026892B2002100203A
:101B700001F0BAFC96200E49088023200D49086028
:101B8000434A01215A2001F001F996E58804FF1F1C
:101B90009804FF1FA0A0044053455400404B4C0044
:101BA0000405FF1FFC04FF1FF804FF1F0C05FF1FA7
:101BB0006004FF1F5404FF1FA865000080D1F008D7
:101BC0004C64000060640000746400002065000044
:101BD0003065000040650000886400009C640000DF
:101BE000BC630000B0650000A0C00440C0F00F401E
:101BF00080969800B0640000C4640000D8640000BF
:101C00005004FF1F4C04FF1FD86500001205FF1F82
:101C1000E065000090650000506500006065000010
:101C2000E8650000706500009C04FF1FAC04FF1F06
:101C300080650000BC04FF1FCC04FF1FF404FF1FDD
:101C40001005FF1FD34D62105839F6BF00048040C5
:101C50004A0C022B8716EDBF004879400000314046
:101C60009A99999999D94340000062426C04FF1FE8
:101C70006804FF1F6404FF1F5C04FF1F5804FF1F5C
:101C8000B8650000C0650000C86500009404FF1F2F
:101C9000D065000070B4794C246854F47854774DC2
:101CA0002C600500764EAD1B08D0403D08D0403D6D
:101CB00008D0403D08D0403D08D009E0714C07E015
:101CC000714C05E0714C03E0714C01E0714CFFE791
:101CD0004FF4807544F82150D2B2012A15D14269DF
:101CE00001248C4022434261012B06D1026801236A
:101CF00013FA01F1114301600EE00268012313FAA7
:101D000001F132EA0101016006E04269012313FAA0
:101D100001F132EA0101416170BC7047012A06D12C
:101D20000268012313FA01F11143016006E0026821
:101D3000012313FA01F132EA0101016070470268E0
:101D4000012313FA01F15140016070475249C0B2BA
:101D5000421151F82210096910F01F000A00C24018
:101D600012F00100704710B5444B1B684FF400742B
:101D700084402343414C2360484BC0B253F8203089
:101D8000C9B2D2B2140414F47024D2B2D209D2B2BD
:101D9000224352F4817243F821203F4AC0B252F8E4
:101DA00020205269012313FA01F132EA01013A4A73
:101DB000C0B252F820205161C0B2573001F0CFFDBF
:101DC00010BD0020364909680A00C240D10707D576
:101DD00033490968012212FA00F0084330490860CB
:101DE00001202F4909680A00C240D10707D52C49B4
:101DF0000968012212FA00F0084329490860704777
:101E00000020284909680A00C240D10707D52549A2
:101E10000968012212FA00F00843224908600120F3
:101E2000204909680A00C240D10707D51D49096841
:101E3000012212FA00F008431A4908607047002096
:101E4000194909680A00C240D10707D5164909682F
:101E5000012212FA00F008431349086001201249D8
:101E600009680A00C240D10707D50F490968012255
:101E700012FA00F008430C490860704738800440AB
:101E800000F00F400090044000A0044000B0044067
:101E900000C0044000D004401C04FF1F3004FF1F9A
:101EA000A0900440A0B00440A0D00440010040F144
:101EB0000980F446404200F005F851F000416047C7
:101EC000010000BF09D0B0FA80F18840C91CC1F5FB
:101ED0008461090501EBD02140057047B0B581EA66
:101EE000030C0CF0004C40F2FF7515EA11541DBFB5
:101EF00015EA1357AC42AF4239E0E41923EA4553DF
:101F000043F48013C90241F0004141EA505EC70228
:101F10001100A7FB020200284FF00000EEFB012099
:101F20004FF00001E3FB072118BF42F00102401807
:101F300000214941E3FB0E01A4F580640F0302D2A6
:101F400052004041494154F101046CDD470872F1EF
:101F5000004250F1000051EB0451A1F580115CBF2B
:101F600041EA0C01B0BD4CEA05510020B0BD05EAC4
:101F70001357AC4214BFAF4241E050EA410E1CBFC0
:101F800052EA430E02E061460020B0BD24423C44C8
:101F90001BD15FEA070EF6D0090302BF01460020FD
:101FA000AEF1140EB1FA81F7AEEB070401FA07FEA9
:101FB0000C37C7F1200100FA07F7C8404EEA000EBF
:101FC00023EA455343F48013A2E733F00043B3FA06
:101FD00083F704BFB2FA82FE77440B3FE41BB7F1EC
:101FE000200E2FBF02FA0EF3BB40C7F1200E22FADB
:101FF0000EFE38BF43EA0E03BA40641C82E750EA83
:10200000410E14BF52EA430E6FF000014FF4001767
:1020100017EB430F8ABF194617EB410FB5E74CEAA0
:1020200005510020B0BDD4F10104B4F120070FDA4E
:10203000C4F12007520828BF42F0010210FA07F548
:1020400001FA07F7E1BF2A43E0403843E1400FE0DF
:10205000352C98DCC7F1200452EA400220FA07F23E
:1020600018BF42F0010231FA07F0A1400A430021F3
:1020700072F1004250F1000051EB0C01B0BD50F87C
:10208000041B61B150F8042BD30744BFA9F101032D
:102090009A180023091F42F8043BFAD1EFE7704772
:1020A00070B44FF0004591EA030C44BF6B4001F05F
:1020B00001BF00BF841A71EB030603D2001BB141BC
:1020C000121973414FF4001C1CEB410F34BF7CEB21
:1020D000430443E00C0DA4EB1356352E50DC45EAC7
:1020E000C323DB0A45EAC121C912B6F120050DDD83
:1020F00063FA05F6EB4086EA0305124218BF45F085
:102100000105C01851F100010CD213E062FA06F586
:10211000F2405540F3415A40B340F3405A408018D2
:10212000594107D349085FEA30005FEA350528BF07
:1021300045F0010501F58011420875F1004250F1AA
:10214000000041EB045170BC4FF4001C1CEB410F2C
:1021500038BF70470020090D090570471CEB410F7F
:1021600010D252EA43060BD0BCEB410F05D80C0D40
:10217000AB43661E342EB5DD02E0AB4380185941F7
:1021800070BC704770BC7047F446400D40EAC120F7
:10219000490006D200F014F8004248BF6FF000403A
:1021A000604700F00DF84FF0004188428CBF0846B0
:1021B00040426047400D40EAC120490080F00D8058
:1021C00040F00040490DA1F58061491C05D4D1F1D2
:1021D0001F0154BFC840C01770474FF00000704740
:1021E0005FF0FF0C1CEAD05114BF614506E0C1103E
:1021F000400721F0E04101F16051704779B900F0EA
:10220000004100020AD0B0FA80FC00FA0CF001F1A3
:102210006051A1EB0C5101EBD02140057047410208
:102220000CBF40F4E0016FF000010020704702682D
:10223000531C036011707047F0B540F2FF7581EADE
:10224000030C0CF0004C15EA11541DBF15EA13578E
:10225000AC42AF42E5E0BC41C1F31301C3F3130349
:10226000801A994143F4801304D2641E400049410E
:1022700080185941C90241EA5051B1FBF3F603FB02
:102280001611A2FB0675D7EBC020A94102D2761E1B
:1022900080185941C90241EA5051B1FBF3FE03FBDA
:1022A0001E11A2FB0E75D7EBC020A94103D2AEF1DF
:1022B000010E80185941890241EA9051760546EA9B
:1022C0008E2EB1FBF3F603FB1611A2FB0675D7EBBE
:1022D0008020A94102D2761E80185941C90241EAE4
:1022E00050514EEA060EB1FBF3F603FB1611A2FBAA
:1022F0000675D7EBC020A94102D2761E801859413D
:10230000C90241EA5051B1FBF3F703FB1711A2FBDD
:102310000735D3EBC020A94167F100070CBF00428D
:1023200047F0010766F3D5274FEA1E31B80814F5C8
:10233000806412DDBD0775F1004250EB0E5051EB89
:10234000045111F5801F5CBF41EA0C01F0BD4CF057
:102350007F6141F0E0410020F0BDBD076D0840EA1B
:102360000E5041F48011D4F10104B4F120060ADAD0
:10237000C4F120060200E04001FA06F3E1401843F0
:10238000B24015430EE0342C13DCC6F1200445EABC
:1023900040056D0820FA06F2154321FA06F0A14027
:1023A0000D43002175F1004250F1000051EB0C018A
:1023B000F0BD00205FEA0C01F0BDCFB992185B417F
:1023C000B3FA83F704BFB2FA82F6BF190B3FB7F135
:1023D00020062FBF02FA06F3BB40C7F1200622FAFF
:1023E00006F638BF3343BA401CB1E419641E33E724
:1023F0007F4231F00041B1FA81F404BFB0FA80F6B7
:10240000A4190B3CB4F120062FBF00FA06F1A1403D
:10241000C4F1200620FA06F638BF3143A0403C1B29
:102420001AE7AC421ABF05EA1357AF4212E050EA6E
:1024300041061CBF52EA4306BFE750EA4107304657
:1024400061461CBF41EA0551F0BD52EA430C08BF8A
:10245000C143F0BD00204FF4001616EB410F98BFAA
:1024600016EB430F08BF16EB410F24BFC14305E035
:1024700016EB430F0CBF61464CEA0551F0BD7047A7
:102480004FEAF17CBCF1E04C2CBFBCF5001F11E021
:102490005FEA4C0C34BFBCF17F5F2EE05FEA9C0C1E
:1024A0004FEA0C1C4FEA3C0CC10071F100414CEBAF
:1024B00050707047C90241EA5051C00218BF41F044
:1024C000010141F000414FEA6C50C0F109002128A0
:1024D00010D240EACC7CCCF1200C11FA0CF070F157
:1024E0000040CCF1200C21FA0CF00CF0004C40EB39
:1024F0000C0070474FEACC707047490011F5001F7F
:1025000004D84FEACC10FF30C0057047C817704799
:10251000002840F10780F446404200F003F850F0F4
:10252000004060470AD0B0FA80F18840D1F19D01A7
:10253000C905020672F1004241EB1020704700000D
:102540004FF4001C1CEB410F94BF1CEB430F09E040
:1025500041EA030C50EA4C0C52EA0C0C03D29942AB
:1025600008BF9042704714BF8B4282427047000000
:102570004FF0807C1CEB400F94BF1CEB410F05E03B
:1025800040EA010C5FEA4C0C01D28142704718BF4F
:1025900088427047FF2212EAD05C1DBF12EAD15375
:1025A000944593422BE09C44D30780EA01021A40F1
:1025B00043EA002043EA0121A1FB0030410038BF7B
:1025C00040007CF17F010BDBFE294ADA5B0842EA1E
:1025D000C15153EA006373F1004C51EB1020704776
:1025E000D1F1080CDCF120012FDB5B0810FA01F1BE
:1025F0000B4373F1004120FA0CF0504170479445B1
:102600001CBF02EAD153934280EA010202F0004269
:102610001DD0400019D0490017D05BB9634514D0D4
:102620000902B1FA81F39940BCEB030CC00140F000
:102630000040C1E70002B0FA80FC10FA0CF0B3EBE6
:102640000C0CC90141F00041B6E710007047400092
:102650000AD0490008D010F1807F94BF11F1807F2B
:1026600002E042F0FF407047D04370474FF0807C5B
:102670001CEB400F94BF1CEB410F05E040EA010C3E
:102680005FEA4C0C01D28842704718BF8142704704
:1026900010B5FF2313EAD0541DBF13EAD1529C4258
:1026A0009A4239E0A41ADA0780EA0103134042EAA9
:1026B000012142EA0020421A3CBF641E01EB4202A3
:1026C000090AB2FBF1FE01FB1E221202B2FBF1F07D
:1026D00001FB10226EF30F201202B2FBF1FE4EEA54
:1026E00000207F3406DDFE2C24DA53EA500050EB44
:1026F000C45010BDD4F1020401FB1E2240F08071D1
:10270000192C1DDC21FA04F0C4F12004A14011436E
:1027100071F10042584110BD9C421ABF03EAD152E8
:102720009A420FE080EA010E0EF00043400004D010
:10273000490016D143F0FF4010BD490008BFD34304
:10274000180010BD9C4205D1D21AF7D001F000410B
:10275000484010BD4A0212BF0846484000F0004001
:1027600010BD4AB90902B1FA81F2914044B1A418EE
:10277000C00140F000409EE7C90141F000415242D3
:102780000002B0FA80F4A040141B94E790EA010F15
:1027900044BF81F0004100F043B800BF421A3CBF83
:1027A000801A89184FF0004CC0F3C752FF2A24D07A
:1027B000C1F3C75313B3D21AD2F1190327DD4CEA80
:1027C00001214CFA03F321EA0303D140C20D4CEA84
:1027D0000020401834BF20EA0C004CEA5000D2051B
:1027E00053EA006373EB0C0C52EB1020420012F121
:1027F000807F38BF7047C00DC0057047490212BFC7
:102800009A4200EB5120F8E7D2F11703D9D570476F
:1028100090EA010F44BF81F00041FFF7BFBF00BF46
:10282000431A4FF000423EBF5340C01AC91800BFC0
:10283000D3095FEAD05C13EB400F34BFB3EB410F19
:1028400040E07CEBD1530CD342EA012122D8D1EBFA
:10285000402009D3400A28BF5FEA500140EBCC502A
:102860007047401A15D04002B0FA80F2521C9040D6
:10287000400A4FEA3C23B3EB026384BF00EB7300D2
:1028800007E040F400001A16DB07C2F10102D04055
:1028900018437047182BFCDC31FA03F202FA03F3F9
:1028A000591A38BF42F00102D2EB40203CBF400031
:1028B000ACF1010C5FEACC5CC20572F100414CEB5B
:1028C0005020704713EB400F0FD24B0009D0ACEBF8
:1028D000D153022B03DB4902172BDDDD70479143F7
:1028E000401A4300D5D10020704713EB410FD0D3DD
:1028F0006FF000007047000080B501230122042121
:102900006C48FFF7C7F90123012212216948FFF73C
:10291000C1F90123012211216748FFF7BBF9012307
:1029200001221A216548FFF7B5F9012301220F2181
:102930006348FFF7AFF90123012200215D48FFF74B
:10294000A9F901BD80B5C0B2002806D0022838D050
:102950001DD3042869D04ED3ABE0C9B2002905D1FC
:1029600000220F215648FFF7D9F90FE0C9B201291B
:1029700005D101220F215248FFF7D0F906E0C9B274
:10298000022903D10F214E48FFF7D9F991E0C9B2CE
:10299000002905D1002211214748FFF7BFF90FE0B8
:1029A000C9B2012905D1012211214348FFF7B6F927
:1029B00006E0C9B2022903D111213F48FFF7BFF950
:1029C00077E0C9B2002905D1002200213948FFF77C
:1029D000A5F90FE0C9B2012905D10122002135482E
:1029E000FFF79CF906E0C9B2022903D10021314862
:1029F000FFF7A5F95DE0C9B2002905D100221A212F
:102A00002E48FFF78BF90FE0C9B2012905D1012249
:102A10001A212A48FFF782F906E0C9B2022903D138
:102A20001A212648FFF78BF943E0C9B2002914D1D7
:102A300000220F212248FFF771F9002200211D48D2
:102A4000FFF76CF9002211211B48FFF767F90022FC
:102A50001A211A48FFF762F92AE0C9B2012914D1F4
:102A600001220F211648FFF759F9012200211148D0
:102A7000FFF754F9012211210F48FFF74FF9012206
:102A80001A210E48FFF74AF912E0C9B202290FD104
:102A90000F210B48FFF753F900210648FFF74FF9C4
:102AA00011210548FFF74BF91A210448FFF747F9B0
:102AB000FFE701BD80F00F4000F00F4000F10F4034
:102AC000C0F00F400821DFF82426126852F40052AB
:102AD000DFF818361A60DFF81426126832F48032F4
:102AE000DFF808361A6019E0DFF80026126832F4C1
:102AF0000042DFF8F8351A60DFF8F025126852F46A
:102B00008032DFF8E8351A6000BFDFF8E025126890
:102B100032F48032DFF8D4351A6040000A00511ECA
:102B2000D2B2002A0AD00206DED5DFF8C02512682C
:102B300052F40042DFF8B4351A60DDE77047000058
:102B40000821DFF8A825126832F40052DFF89C351E
:102B50001A60DFF89825126832F48032DFF88C357D
:102B60001A6019E0DFF88425126832F40042DFF8B9
:102B70007C351A60DFF87425126852F48032DFF871
:102B80006C351A6000BFDFF86425126832F48032B9
:102B9000DFF858351A6040000A00511ED2B2002AF0
:102BA0000AD00206DED5DFF84425126852F400424E
:102BB000DFF838351A60DDE7704710B50400B1F171
:102BC0005000C0B2FFF7BCFFE4B2200950F0100083
:102BD000C0B2FFF7B5FF14F00F0050F00100C0B213
:102BE000FFF7AEFF10BD70B50400002508E020001F
:102BF000C0B2FFF767FF761CF6B2802EF7DB6D1CC4
:102C0000EDB2082D0CDAB5F15000C0B2FFF798FF15
:102C10000120FFF795FF1020FFF792FF0026EBE75A
:102C200070BD38B5002407E00020FFF74BFF6D1C96
:102C3000EDB2802DF8DB641CE4B2082C0CDAB4F1A0
:102C40005000C0B2FFF77CFF0120FFF779FF102092
:102C5000FFF776FF0025EBE731BD06E040F2375184
:102C60000A00511E002AFBD1401E0028F6D17047F1
:102C700080B5002301220D21DFF87004FFF70AF868
:102C8000002301220E21DFF86404FFF703F800237C
:102C900001220F21DFF85404FEF7FCFF002301227C
:102CA0001021DFF84804FEF7F5FFDFF84004006864
:102CB00050F48030DFF834140860DFF83004006826
:102CC00030F48040DFF8241408603220FFF7C5FF9D
:102CD000DFF81804006850F48040DFF81014086032
:102CE000AE20FFF72DFF0020FFF72AFF1020FFF78F
:102CF00027FF4020FFF724FF8120FFF721FFC82096
:102D0000FFF71EFFA120FFF71BFFC820FFF718FFEA
:102D1000A620FFF715FFD320FFF712FF0020FFF7D3
:102D20000FFFD520FFF70CFF8020FFF709FFD92008
:102D3000FFF706FFF120FFF703FFDA20FFF700FFA0
:102D40001220FFF7FDFEDB20FFF7FAFE4020FFF721
:102D5000F7FE2020FFF7F4FE0020FFF7F1FE8D20A4
:102D6000FFF7EEFE1420FFF7EBFEA420FFF7E8FECE
:102D7000A620FFF7E5FEAF20FFF7E2FE0020FFF7F9
:102D800032FF00210020FFF718FF01BD2DE9F843B5
:102D900004000D0016005FF000085FF00009002736
:102DA00015E0DFF850035FFA88F8062101FB080000
:102DB0005FFA89F919F80000FFF784FE19F101099B
:102DC0005FFA89F9B9F1060FEBDBA41D7F1CFFB296
:102DD000B85D002811D0FFB2B85DB0F12008E4B2B0
:102DE0007F2C01DB00246D1C2900C9B22000C0B279
:102DF000FFF7E3FE5FF00009E2E7BDE8F1832DE9AC
:102E0000F84304000D0016005FF000085FF00009B1
:102E1000002714E0DFF8E0025FFA88F85FEA0811A3
:102E200051FA89F10818007AFFF74CFE19F10109EF
:102E30005FFA89F9B9F1080FECDB08347F1CFFB2A7
:102E4000B85D00282CD0FFB2B85DB0F12008E4B224
:102E5000792C01DB00246D1C2900C9B22000C0B20E
:102E6000FFF7ABFE5FF000090CE0DFF88C025FFAC1
:102E700088F85FEA081151FA89F1085CFFF722FE31
:102E800019F101095FFA89F9B9F1080FEDDB691C45
:102E9000C9B22000C0B2FFF790FE5FF00009C7E79B
:102EA000BDE8F1832DE9F84306000C0015005FF042
:102EB000000900275FF001080BE00020FFF702FE89
:102EC00019F101095FFA89F9B9F1100FF5DB0E3636
:102ED000BF1CFFB2785D002800F085805FF000091C
:102EE0005FF0010801E019F10209DFF810025FFA52
:102EF00089F919F8000080281ADBDFF800025FFA70
:102F000089F919F80000FFB2795D8842EBD1DFF84A
:102F1000EC015FFA89F919EB00004078FFB27919EA
:102F200049788842DFD15FFA89F90E2000FB09F861
:102F3000F6B2772E01DB0026641C2100C9B23000F6
:102F4000C0B2FFF73AFEB8F1010F2FD02100C9B28D
:102F50003000C0B2FFF731FE5FF0000909E0DFF892
:102F6000A00118F80000FFF7ADFD18F1010819F1F4
:102F700001095FFA89F9B9F10E0FF0DB611CC9B2E2
:102F80003000C0B2FFF719FE5FF000095FFA89F95F
:102F9000B9F10E0F9BDADFF8680118F80000FFF7AF
:102FA00091FD18F1010819F10109EFE77F1C2100DB
:102FB000C9B23000C0B2FFF700FE5FF0000904E0C4
:102FC0000020FFF77FFD19F101095FFA89F9B9F1D6
:102FD000100FF5DB611CC9B23000C0B2FFF7EDFD88
:102FE0005FF000096EE7BDE8F183F8B504000D005D
:102FF0001600002714E0FFB2B85D8DF80000FFB2A4
:10300000B81940788DF8010000208DF8020000AA60
:103010002900C9B22000C0B2FFF744FF0E34BF1C24
:10302000FFB2B85D002814D0FFB2B85D8028E2DAA4
:10303000FFB2B85D8DF8000000208DF8010000AAF5
:103040002900C9B22000C0B2FFF7D9FE08347F1CA6
:10305000E6E7F1BD70B5002400260AE0DFF8A40021
:10306000205CFFF72FFD641C6D1CEDB2762DF5DBA7
:10307000761CF6B2082E06DA3100C9B21020FFF72E
:103080009CFD0E25F1E770BD70B58CB004000D00FD
:10309000160024B2012C0DDB24B2220014A108A8D2
:1030A00000F082F808AA3100C9B22800C0B2FFF7C8
:1030B0006DFE17E000A81449102200F0B1FF5FF088
:1030C000FF3014FB00F20AA104A800F06DF804A977
:1030D00000A800F083F800AA3100C9B22800C0B2ED
:1030E000FFF754FE0CB070BD0000000080F00F40F0
:1030F00025750000045F000018530000886200007E
:10310000485C000008590000006500005FEA000C00
:10311000830706D011F8013B00F8013BB3B18307E8
:10312000F8D10A68B2F1013323EA020313F0803FB9
:1031300002BF40F8042B51F8042FF3E711F8013BCC
:1031400000F8013B13B111F8013BF9E76046704705
:1031500080B50123002214210748FEF79BFD0123BF
:10316000002215210448FEF795FD012300221621B7
:103170000148FEF78FFD01BD40F00F4080B5C0B2A1
:10318000002803D0022809D004D30BE03420FEF736
:10319000DDFD08E03520FEF7D9FD04E03620FEF71E
:1031A000D5FD00E0FF2002BD0CB41CB5044604A808
:1031B00001900A46009401AB00A9074878441830F2
:1031C00000F06AFF009A0021117000285CBF00988F
:1031D000001B16BC5DF80CFB57F0FFFF024600E039
:1031E000521C1378002BFBD111F8013B137012F81D
:1031F000013B002BF8D170470A22002101F0C6BE26
:1032000010B4494B1B6853F47853474C2360C0B249
:10321000002852D0C0B20300302B1ED0322B1FD05A
:10322000602B20D0642B21D06E2B22D0782B23D082
:103230007D2B24D0822B25D08C2B26D0962B27D0EB
:10324000A02B28D0AA2B29D0B42B2AD0C82B2BD026
:10325000E12B2CD0FA2B2DD02FE0182200212CE0CE
:103260001822012129E01822182126E018221A210B
:1032700023E018221F2120E0132218211DE0132231
:103280001A211AE013221C2117E00E22122114E049
:103290000E22152111E00E2218210EE00E221B2114
:1032A0000BE00E221E2108E00C221C2105E00B225F
:1032B0001E2102E00A221F21FFE780231B4C2370FE
:1032C00012F01F021A4B1A701A4A1268194B1B6827
:1032D00053F47F03174C2360174B184C2360154B96
:1032E0001A6011F01F0151F04001154A1170154983
:1032F00009788906FBD5134909784906FBD50021D1
:103300000A4A11700F490978C1F38101C9B2032932
:10331000F8D10D4908700C480078022190FBF1F0BB
:103320000A49087010BC70473880044000400640CD
:103330000440064000F001400000270144800440A2
:1033400005400640064006401C05FF1F1D05FF1FE7
:1033500030B4C0B2002803D0022864D048D37DE046
:10336000DFF8CC41246854F08074DFF8C4512C603D
:10337000C9B200290BD0022915D00ED304291ED0C2
:1033800017D3062927D020D307292AD02FE04FF4BE
:103390008064DFF8A0512C6060E04FF48064DFF8B7
:1033A00098512C60F8E74FF48064DFF890512C605E
:1033B000F2E74FF48064DFF888512C60ECE74FF4BB
:1033C0004074DFF880512C60E6E74FF48064DFF84A
:1033D00078512C60E0E74FF48064DFF870512C6086
:1033E000DAE74FF48064DFF868512C60D4E779E0C5
:1033F000DFF83C41246854F00074DFF834512C604D
:10340000C9B2002902D0012906D00BE04FF4407464
:10341000DFF840512C6021E04FF44074DFF8385160
:103420002C60F8E75EE0DFF83441246854F08074E3
:10343000DFF828512C60C9B2002902D0012906D03A
:103440000BE04FF44074DFF818512C6006E04FF4A5
:103450004074DFF810512C60F8E743E0DFF80841D2
:10346000C0B254F82040C9B214EBC104DFF8F850E0
:10347000C0B255F82050C9B215EBC105ED6835F062
:103480000405E560DFF8E040C0B254F82040C9B25E
:1034900014EBC1042825E5600B24DFF8CC50C0B242
:1034A00055F820502C6092B2DFF8BC40C0B254F8FE
:1034B0002040A2600022DFF8B040C0B254F82040A3
:1034C000E264DFF8A420C0B252F82020C9B212EBA7
:1034D000C1019BB20B610021DFF88C20C0B252F811
:1034E0002000416030BC7047DFF87C30C0B253F838
:1034F0002000C9B210EBC10092B2026170471B48B4
:103500000068002019490860002001207047184811
:103510000068002016490860002001207047154807
:103520000068002013490860002001207047000057
:103530003C80044004B0044008B004400CB0044097
:1035400010B004401C90044014C0044018C0044053
:103550001CC004403090044034900440308004404B
:10356000289004404CA004401004FF1F50800340EA
:103570005090034050800B40C0B200281AD1AE4991
:10358000096851F04001AC4A11604FF40071AB4A38
:103590001160AA49096851F02001A84A11604FF44E
:1035A0000071A74A1160A649096851F02001A44A98
:1035B000116019E0A049096851F080019E4A11602C
:1035C0004FF4C0619F4A11609E49096851F0200183
:1035D0009C4A11604FF4C0619B4A11609A49096886
:1035E00051F02001984A11600021984AC0B252F867
:1035F000202051708021954AC0B252F8200081707D
:10360000704752EA4101914AC0B252F820209278A4
:1036100052F030028D4BC0B253F820309A708B4A72
:10362000C0B252F82000017170470000012001E093
:1036300000BF401C80B24CF250318842F8DB70472A
:1036400070B504000D00160000222900C9B2200048
:10365000C0B2FFF7D6FF7D48E4B250F82400C0782E
:103660008007F8D57948E4B250F82400C07850F0CB
:1036700002007649E4B251F82410C8707348E4B2ED
:1036800050F8240006717148E4B250F82400C07864
:103690008007F8D56D48E4B250F82400C07850F0A7
:1036A00002006A49E4B251F82410C8706748E4B2D5
:1036B00050F82400807850F004006449E4B251F8D6
:1036C00024108870680050F001006049E4B251F89D
:1036D000241008715D48E4B250F82400C0788007D7
:1036E000F8D55A48E4B250F82400C07850F00200EF
:1036F0005649E4B251F82410C8705448E4B250F866
:103700002400807810F0EF005049E4B251F8241002
:1037100088704E48E4B250F82400807850F00800D9
:103720004A49E4B251F8241088704848E4B250F88D
:10373000240000794548E4B250F82400C07880079E
:10374000F8D54248E4B250F82400C07850F00200A6
:103750003E49E4B251F82410C8703C48E4B250F835
:103760002400807810F0CF003849E4B251F82410DA
:1037700088703648E4B250F824000079C0B270BDB9
:1037800070B5040015001E000022C9B22000C0B2AE
:10379000FFF737FF2D48E4B250F82400C0788007C7
:1037A000F8D52A48E4B250F82400C07850F002005E
:1037B0002649E4B251F82410C8702448E4B250F805
:1037C000240005712148E4B250F82400C078800735
:1037D000F8D51E48E4B250F82400C07850F002003A
:1037E0001A49E4B251F82410C8701848E4B250F8ED
:1037F000240006711548E4B250F82400C078800710
:10380000F8D51248E4B250F82400C07850F0020015
:103810000E49E4B251F82410C8700C48E4B250F8D4
:103820002400807810F0CF000849E4B251F8241049
:103830008870FFF7FBFE70BD3480044020C0044058
:1038400024C0044004D0044000D004404404FF1FBE
:1038500080B5204A126852F400021E4B1A601E4ABC
:103860001268920892001C4B1A601C4A127851434D
:103870004FF47A7251431A4AC0B203019950184961
:10388000C0B211EB0011C96851F00101144AC0B275
:1038900012EB0012D1601249C0B211EB001189681D
:1038A00051F003010E4AC0B212EB00129160C0B297
:1038B000443000F054F801BD0A48006850F001009F
:1038C0000849086070470848006850F00100064940
:1038D000086070473C800440007003401D05FF1FD6
:1038E000007103402C7103403C71034080B580B2ED
:1038F00000F001F801BD80B200281BD01249096810
:1039000051F00101104A11600021104A116080B28B
:103910001049086005200E49086001200B49086025
:103920000A4800680006FBD50848006840084000C7
:103930000649086070470548006850F08000034958
:103940000860704700000000388004400000044018
:1039500004000440080004402549086070475C28C2
:1039600000DB5B20202190FBF1F1002903D002292C
:1039700029D014D33AE00121202290FBF2F303FB7B
:10398000120399401B4A11600121202290FBF2F39F
:1039900003FB120311FA03F01749086026E0012126
:1039A000202290FBF2F303FB12039940134A1160AB
:1039B0000121202290FBF2F303FB120311FA03F022
:1039C0000F49086012E00121202290FBF2F303FB73
:1039D000120399400B4A11600121202290FBF2F35F
:1039E00003FB120311FA03F0074908607047000057
:1039F00008ED00E080E200E000E100E084E200E0A9
:103A000004E100E088E200E008E100E05C2800DB7F
:103A10005B20102900DB0F2100F1604010F56440AD
:103A2000090101707047000010B4C0B2002808D02E
:103A300002282CD018D3042849D039D3052855D0D2
:103A400063E0DFF8C822126852F48062DFF8BC320B
:103A50001A604FF44072DFF8B8321A604FF44072C7
:103A6000DFF8B0321A6050E0DFF8A022126852F49A
:103A70000062DFF898321A604FF44072DFF8983233
:103A80001A604FF44072DFF894321A603DE0DFF8BC
:103A90007C22126852F480529C4B1A604FF44072A0
:103AA000DFF87C321A604FF440729E4B1A602CE0B3
:103AB000964A126852F40052944B1A604FF44072C6
:103AC000994B1A604FF44072984B1A601DE0984A67
:103AD000126852F48062964B1A604FF44072954B14
:103AE0001A604FF44072944B1A600EE0904A1268CC
:103AF00052F400628E4B1A604FF440728F4B1A6082
:103B00004FF440728E4B1A60FFE78E4AC0B252F8F3
:103B10002020D27812F0F3028A4BC0B253F8203042
:103B2000DA70884AC0B252F820209278854BC0B231
:103B300053F820309A70C0B2002802D0C0B20128D9
:103B400005D1814A1278814B03FB02F304E0804ADD
:103B500012787E4B03FB02F30A01B3FBF2F292B23E
:103B6000B2F5005F01DB41F6FF72B3FBF1F192B2F7
:103B7000B1EB0211734BC0B253F820301B7813F035
:103B8000E003C2F3042423436E4CC0B254F8204037
:103B900023706C4BC0B253F820305A70694AC0B2DF
:103BA00052F82020927A12F0E00311F01F0119431D
:103BB000644AC0B252F8202091726249C0B251F8F2
:103BC0002010097C51F088015E4AC0B252F82020D2
:103BD00011745C49C0B251F82010C97851F00C0141
:103BE000584AC0B252F82000C17010BC7047554905
:103BF000C0B251F8201009798906F8D55149C0B2F0
:103C000051F82000C07970474E4AC0B252F82020C7
:103C100012791206F8D54B4AC0B252F82000C17191
:103C2000704738B504000D0005E029782000C0B2C7
:103C3000FFF7EAFF6D1C28780028F6D131BD00B5EA
:103C400085B00020FFF7D3FFC0B20200414900A8B1
:103C5000FFF7AAFA00A90020FFF7E3FF05B000BDB7
:103C600000B585B00120FFF7C2FFC0B2020039499C
:103C700000A8FFF799FA00A90120FFF7D2FF05B0CD
:103C800000BD00B599B00220FFF7B1FFC0B202003D
:103C9000304900A8FFF788FA00A90220FFF7C1FF0A
:103CA00019B000BD00B585B00320FFF7A0FFC0B27A
:103CB0000200284900A8FFF777FA00A90320FFF7C0
:103CC000B0FF05B000BD00B585B00420FFF78FFF41
:103CD000C0B202001F4900A8FFF766FA00A904203D
:103CE000FFF79FFF05B000BD00B585B00520FFF7C9
:103CF0007EFFC0B20200174900A8FFF755FA00A9DD
:103D00000520FFF78EFF05B000BD000034800440A1
:103D10003C900440389004400CB0044010B0044083
:103D20000CC0044008C0044040B0044044B004400B
:103D30002880044064D0044060D0044024D0044073
:103D400020D004407004FF1F1C05FF1F40420F00DD
:103D50001D05FF1FEC640000C0B250EA012080B2D4
:103D6000704738B504000D002200D2B2292101208D
:103D7000FFF766FC2870E21DD2B229210120FFF76F
:103D80005FFCE871A21DD2B229210120FFF758FC87
:103D9000A87114F10902D2B229210120FFF750FCC9
:103DA000687214F10802D2B229210120FFF748FC01
:103DB000287214F10B02D2B229210120FFF740FC36
:103DC000E87214F10A02D2B229210120FFF738FC6F
:103DD000A872A979E879FFF7BFFF1C490880297A02
:103DE000687AFFF7B9FF1A490880A97AE87AFFF7DD
:103DF000B3FF184908802878C0F3C300C0B2164941
:103E0000088031BD10B584B0012300222921012092
:103E1000FFF7B6FC0020002400E0641C642C09DAE3
:103E20000A20FFF763FD142229210120FFF708FC77
:103E3000C107F2D5C00706D500A91420FFF791FFEE
:103E40000448008800E0002004B010BD1405FF1FE6
:103E50001605FF1F1805FF1F1A05FF1F4100090E59
:103E60007F3915D4D1F11F0114D4400007D2C0010D
:103E700040F00040C84048BF6FF000407047C001AC
:103E800040F00040C8404CBF4FF0004040427047F7
:103E90000020704700424FF0004058BFC0437047B9
:103EA00070B44FF0004591EA030F44BF6B40FEF73A
:103EB00001B900BF841A71EB030604D26E40001BE7
:103EC000B141121973414FF4001C1CEB410F34BF78
:103ED0007CEB430684E00C0DA4EB1356362E7DDC00
:103EE000012E43DC45EAC32343EA525312BFD202F8
:103EF00092025B08240545EAC12141EA5051D2EB08
:103F0000C020994125D407D1B0FA80F610FA06F105
:103F100064D00020203608E0B1FA81F6B140C6F145
:103F2000200220FA02F21143B0404FEAF474B4EBDD
:103F3000465434F001064FEA74040AD8D6F5001648
:103F4000760D04F00044F04061FA06F25040F14072
:103F50004840C00A40EA415021F0004128BF5FEAD2
:103F6000500550F1000044EBD12137E045EAC3236E
:103F7000DB0A45EAC121C90AB6F120050EDD42EA95
:103F80000242120CC5F1200603FA06F6EB4042EAA3
:103F900006056D42984161F100010DE062FA06F5F7
:103FA000F240554063FA06FC82EA0C02F3405A40A4
:103FB0006D42904161EB030111F4801F05D1641E35
:103FC000620502D06D004041494121F4801143084F
:103FD00075F1004350F1000041EB045170BC704793
:103FE0001CEB410F15D223F0004352EA43060BD0DD
:103FF0004FEA4C0CBCEB410F04D80C0D661E342E5E
:10400000B7DDEBE7801A994150EA410608BF00216D
:10401000E4E708BF1CEB430F28BF6FF00001DDE7AA
:1040200062B38B0708D0521E11F8013B00F8013B28
:1040300000F024808B07F6D1830740F0208000BF7A
:10404000103A07D330B4B1E83810103AA0E838106D
:10405000F9D230BC530724BFB1E80810A0E808101B
:1040600044BF51F8043B40F8043BD20724BF31F869
:10407000022B20F8022B44BF0B7803707047083ADC
:1040800007D3B1E80810083A40F8043B40F804CBE5
:10409000F7D25307E4E700002DE9F04FA1B08246C4
:1040A000002017461D4602910B900DF1440B6FF056
:1040B00000490AE017F8011B0298D0470290002837
:1040C00000F0A8820B98401C0B90387808B90B9828
:1040D000A2E22528EED100200590069007900890D6
:1040E00009900A9001E040F0010017F8011F202913
:1040F000F9D023290DD02B2904D02D2906D0302921
:104100000AD00CE040F0020080B2EEE740F004007C
:10411000FAE740F00800F7E740F01000F4E72A293A
:104120000ED12968296051F8042B2960002A0D92CC
:1041300004D5514240F004000D9180B27F1C11E083
:1041400000210D9109E00D99494505D001EB81034E
:1041500002EB430130390D917F1C3A78A2F1300116
:104160000A29F0D339782E2903D04FF0FF310C9172
:104170001DE017F8011F2A2907D1296829607F1C33
:1041800051F8042B29600C9211E000210C9109E0F8
:104190000C99494505D001EB810302EB430130390D
:1041A0000C917F1C3A78A2F130010A29F0D3ADF8C6
:1041B00038000FF67440397800F012FF08B117F894
:1041C000010B8DF83A009DF83A00682802BF397853
:1041D0006829622005D06C2804BF38786C2803D188
:1041E00071208DF83A007F1C11A8049017F8014B3C
:1041F000B4F125002AD01C3800F0CC80001F022822
:1042000040F2C880133800F0EE80093800F0C28018
:10421000801E00F04F81401E00F02481401E0228C5
:1042200040F2B880001F00F01D81401F00F0838025
:10423000401E00F0D880401E29D0C01E0CD0801E29
:1042400000F0D180C01E00F0CE803DE1012005903D
:1042500025208DF8440043E12868286050F8044B7D
:1042600028600394DDF83080B8F1000F04D52046B3
:1042700000F0C2FE804607E042460021204600F0E2
:10428000D7FE08B1A0EB0408CDF8188028E1296812
:1042900029604FF03C0851F8040B29600021CDE95A
:1042A000000111A80390DDE90001049C11B908B9CF
:1042B0000C9AC2B10206120FA0EB02123032D2B237
:1042C0003A2AA8BF27320009A8F1010340EA017089
:1042D00009091A5508BF0028984604D0039A08EB2C
:1042E00004039A42E6D308EB04000390C8F13C01B2
:1042F0000C980691814209DA401A08904FF6EF7146
:10430000BDF838000840ADF83800E9E0002840F179
:10431000E7809DF8380000F01400102840F0E0809D
:104320000D98059A801A089A801A401A0128C0F23E
:10433000D7800890D4E09DF83A0062281AD0682807
:1043400006D06A280CD06C281CD0712808D019E03F
:104350002868286050F8041B28600B980880BFE08C
:104360002868286050F8042B28600B98C117C2E910
:104370000001B5E02868286050F8041B28600B98FD
:104380000870ADE02868286050F8041B28600B987E
:104390000860A5E02868C01D20F007022A60D2E965
:1043A000000108322A60CDE90001002903D501206F
:1043B00005902D200CE0BDF83800810703D50120C1
:1043C00005902B2004E0C00704D501200590202093
:1043D0008DF84400059911A808180390214600A8FB
:1043E00000F0D8F97CE09DF83A206C2A0DD0712AB3
:1043F00018BF6A2A09D12868C01D20F007032B6066
:10440000D3E9000108332B6005E02968296051F8E1
:10441000040B29600021CDE90001682A08BF80B2A1
:1044200007D0622A08BFC0B203D0742A18BF7A2A04
:1044300002D10021CDE900019DF83800000730D5F8
:10444000DDE90001002908BF00282AD044F020003F
:10445000782826D130208DF844008BF801400220C6
:1044600005901EE09DF83A00294600F0D8F8CDE905
:104470000001002904DA0598411C05912D210EE068
:10448000BDF83800810704D50598411C05912B2102
:1044900005E0C00705D50598411C0591202100F8CD
:1044A0000B10059911A808180390214600A800F0E8
:1044B000EDF815E0012005902868286050F8041BED
:1044C00028608DF844100BE0012005902520002C79
:1044D0008DF8440004D00598411C059100F80B406C
:1044E0000D980599401A0899401A0699401A099999
:1044F000401A0799401A0A99A0EB01089DF8380064
:1045000040070FD420208DF84000002408E001234C
:1045100010AA00A9504600F070FC00287AD1641C53
:104520004445F4DB059C11AE0AE016F8011B029825
:10453000D047029000286DD00B98401C0B90641E51
:10454000002CF2D130208DF840000026089C08E0B5
:10455000012310AA00A9504600F04FFC002859D1B1
:10456000761CA642F4DB069C039E0AE016F8011BAB
:104570000298D047029000284CD00B98401C0B901A
:10458000641E002CF2D130208DF840000026099CDA
:1045900007E0012310AA00A9504600F02EFCC8BB7A
:1045A000761CA642F5DB03980699079C0E1809E0D5
:1045B00016F8011B0298D047029058B30B98401C84
:1045C0000B90641E002CF3D130208DF840000026A3
:1045D0000A9C07E0012310AA00A9504600F00DFC38
:1045E000C0B9761CA642F5DB9DF8380040077FF580
:1045F0006CAD20208DF84000002400E0641C444590
:10460000BFF663AD012310AA00A9504600F0F5FBE8
:104610000028F3D04FF0FF3021B0BDE8F08F6228C2
:1046200026D068281DD06A2808D06C2827D0712889
:1046300004D0742823D07A280CD020E00868C01D4C
:1046400020F007000860D0E9002308300860194610
:10465000104670470A680A6052F8040B0A6000218D
:1046600070470A680A6052F8040B0A6000B20BE057
:104670000A680A6052F8040B0A6040B204E00A6853
:104680000A6052F8040B0A60C11770472DE9FA4E10
:1046900005460A462F696F2A08BF082405D041F055
:1046A0002000782814BF0A2410243C26D5E90001F4
:1046B000642A18BF692A81468A4605D1002903DA8F
:1046C000D9F100096AEB4A0ABAF1000F08BFB9F143
:1046D000000F0CD1286B50B9082C36D195F8380052
:1046E000000732D530203B2687F83B002DE0E3174A
:1046F00048465146224600F0C7FCA4FB0023A9EB24
:1047000002023032D2B2A6F1010B3A2A5E4603DB36
:104710009DF80030513B9A1881465FEA010A0BF878
:10472000072008BFB9F1000F03D0E868F1198842EB
:10473000DDD3082C09D195F83800000705D5F05DC8
:10474000302802D0761E3020F055C6F13C00A8611A
:10475000F119E960296B884208DA081A28624FF6D5
:10476000EF71288F08402887BDE8F38E00290ED509
:1047700095F8381001F01401102908D1696B6A69A5
:10478000891A2A6A891A081A0128A8BF2862BDE86E
:10479000F38E00002DE9F24F04468EB0D4E90001FB
:1047A000CDE9020104AF9DF8380040F0200BBBF1C9
:1047B000610F0AD0206B002848BF062004D408BF30
:1047C000BBF1670F01D1012020636168C1F30A507A
:1047D00040F2FF7290421CD1080304BF20680028F9
:1047E00009D10320A0619DF8380061381A2836D31A
:1047F0000FF2486108E00320A0619DF8380061389D
:104800001A2829D30FF22C61E0680322FFF708FC75
:10481000BEE1012816DA204600F0ADFC012811DBCC
:1048200000250020BBF1610F20D1E168302201F8A2
:10483000012B4A1CE2609DF83820612A0CBF7822C7
:1048400058220FE0626840F2FE3161F31E52451AB1
:1048500062604FF0FF30E5E70FF2D451D4E70FF27A
:10486000D851D1E70A706169891C616110B90026CD
:10487000002584E1BBF1610F40F09780206B002898
:104880004CBF2126461CDDE90201D4E900AB002221
:104890000023FDF755FE36B23ABF8BF00040CDE95C
:1048A00002A0CDE902AB06F101082D1F8DF8102002
:1048B0000DF1110700E0C71DB8F1010F33DBDDE991
:1048C00002010022002300F077FC2CD21C2102A858
:1048D00000F08AFCDDE90201FDF756FCA8F10708AB
:1048E000B8F1010F814609DBFDF7E0FA02460B46FD
:1048F000DDE90201FFF7D4FACDE90201F81D072135
:1049000005E009F00F0200F8012D4FEA2919B9F16D
:10491000010F01DB491EF4D5491E5CBF002200F8DF
:10492000012DF9D5C7E70DF11100391AB142B8BF11
:104930000E4636B230000DF111072FD4884206DA48
:1049400004A9411849780829A8BF0F2100DA0021DD
:1049500004AA821800E0761E12F80139401E8B422C
:10496000F9D00F2904D104A941184A78521C4A7081
:10497000002802D504AF761C2D1D36B2701E0DD452
:10498000C1190A783032D2B23A2A03DB9DF83830A6
:104990003A3B9A18401E01F80129F2D5206B0028F5
:1049A00040F1ED80701E2063E9E0DDE902010022A4
:1049B0000023FDF7C5FD3CBF81F00041CDE90201B8
:1049C0002DB247F2975068434B49DFF8309190FB86
:1049D000F1F52DB2C5F1070ABAF1010F90461CDBC3
:1049E000DDE902675FEACA7007D542464B463046AA
:1049F0003946FDF773FA06460F464FEA6A0A404603
:104A0000494642464B46FDF769FABAF1000F804627
:104A10008946E7D1CDE9026724E0CAF1000A002601
:104A2000374F14E05FEACA7007D542464B4630461E
:104A30003946FDF753FA06460F464FEA6A0A4046E2
:104A4000494642464B46FDF749FA80468946BAF147
:104A5000000FE7D1DDE9020132463B46FDF7ECFBF2
:104A6000CDE90201BBF1660F216BDFF898900CBF16
:104A700005F10A0006204618142EA8BF1326302080
:104A80008DF810000DF11107012E3DDBDDE902016B
:104A9000FDF790FB07F1080104220A23B0FBF3F3B2
:104AA00003EB8307A0EB4700303001F8010D0A202B
:104AB000B3FBF0F000EB8007A3EB47033033521E4B
:104AC00001F8013DE9D1083E012E01F10807DBDBC9
:104AD000DDE90201FDF76EFBFDF7F2F902460B4638
:104AE000DDE90201FFF7DCF900224B46FDF7F6F99C
:104AF000CDE90201CAE700BFA08601000000244002
:104B00000000F03F84D797410DF11100381A0DF1E4
:104B1000110702E0401E6D1E7F1C39783029F9D044
:104B2000BBF1660F02D12DB2691C04E0BBF1650F29
:104B30000CBF01210021226B8E1836B2B042B8BFE3
:104B4000064636B231001AD4814204DAC85D3528EF
:104B5000A8BF392000DA3020CA19521E00E0761EA4
:104B600012F80139491E8342F9D0392802D1C85DB3
:104B7000401CC855002902D57F1E761C6D1C2DB225
:104B80009DF83810009533B23A46204600F003F8FD
:104B90000FB0BDE8F08F2DE9F043054685B01E4605
:104BA000D5F83080012E8946174602DA01260FF229
:104BB000902749F02000BDF93040662808BF641CEA
:104BC00017D0672840F0828014F1040FC0F284806F
:104BD000444580F2818095F83800641C000702D4B7
:104BE0004645B8BFB04624B2B8EB040848BF4FF002
:104BF000000824B2E868A969012C25DA4A1C302390
:104C00000B54B8F1010F03DA95F83810090702D5F3
:104C10002E211154521C18EB040FB8BFC8F1000428
:104C200024B26142A044B045AA61B8BF4646696259
:104C300036B2EE613246AB6939461818FFF7F0F923
:104C4000A8EB0600A862C1E00818A64218DA3246AE
:104C50003946FFF7E5F9A9697118A01BA961B8F1F8
:104C6000010F686203DA95F83800000705D5EA6895
:104C70002E208854E869401CE861C5F82880A5E02A
:104C800022463946FFF7CCF9A8692018361BB8F13F
:104C9000010F03DA95F83810090703D5EA682E21C9
:104CA0008154401CA86136B2B045B8BF4646E8689A
:104CB000AB6936B23246E1191818FFF7B1F9A869A5
:104CC0003018A861A8EB060068627FE0B9F1610FB7
:104CD00016D14FF0700918E0464504DA95F83810FF
:104CE000090758BFB046B8F1010848BF4FF00008A7
:104CF000B9F1670F14BF4FF045094FF0650904E0A3
:104D0000B9F1410F08BF4FF05009A969E86817F8D9
:104D1000013B0B544A1CB8F1010F05DA95F8381025
:104D2000090758BFAA6117D52E211154531CB8F199
:104D3000010FAB6110DB761E36B2B045B8BF4646F8
:104D400036B2324639461818FFF76AF9A8693018A2
:104D5000A861A8EB06006862E868A9690F1820003E
:104D600007F8019B03D42B2007F8010B03E02D214A
:104D700007F8011B644200260DF1080808E00A222A
:104D800000A800F0B9FA019808F8010B761C009C05
:104D900021B20129F3DA022E06DA49F02000652853
:104DA00004BF302007F8010B4EB9302007F8010B83
:104DB00007E0761E02A8305C303007F8010B012EA8
:104DC000F7DAE868A9690818381AE86195F8380030
:104DD00000F0140010280DD16869A9690818696AE3
:104DE0000818E9690818A96A0818696B8842BCBFE5
:104DF000081A286205B0BDE8F083F8B504460D46F0
:104E000016461F46002004E0E86A401CE8627F1E48
:104E1000002047B116F8011BA868A047A860002829
:104E2000F2D14FF0FF30F2BD686A6C747A4C00002A
:104E30006E616E004E414E00696E6600494E46003E
:104E4000300000002DE9F04F85B004461E000D46ED
:104E500090461CBF00203060A14601E009F1010925
:104E600099F80000A0F109010529F7D32028F5D011
:104E70002D2816BF2B2819F8017B2B27B8F1000F1E
:104E800057D4B8F1010F54D0B8F1250F51DAB8F169
:104E9000010F0DDBB8F1100F04BF99F800003028A6
:104EA00002BF99F8010040F02000782814D10EE0EC
:104EB00099F80000302818BF4FF00A080CD199F873
:104EC000010040F02000782804D14FF0100809F1CB
:104ED000020901E04FF00808CDF8109001E009F157
:104EE000010999F800003028F9D00FF2A40B4FF017
:104EF000000ACDF80C908DF808B00AE09DF8081073
:104F0000CDF804A0401AC0B2009008FB0A0A09F1CB
:104F1000010999F80010A1F141001A2838BF203189
:104F20004246584600F084F80028E7D104984845E6
:104F300003D105B12C60002025E00FF27C0103981D
:104F400018F80110A9EB0000401A14D4012808DA5F
:104F50000098BAEB000004D30199B0FBF8F0884246
:104F600009D000F0D1F9222101600EB1012030609A
:104F70004FF0FF3A03E02D2F08BFCAF1000A0DB130
:104F8000C5F80090504605B0BDE8F08F002359E702
:104F900030313233343536373839616263646566AF
:104FA0006768696A6B6C6D6E6F7071727374757619
:104FB0007778797A0000000000002115110E0D0CA1
:104FC0000B0B0A0A09090909090808080808080852
:104FD0000707070707070707070707070700000076
:104FE0000278C9B28A421AB11CBF10F8012FF9E742
:104FF00018BF00207047000000F10103810704D0B2
:1050000010F8011B89B18107FAD10268B2F10131B0
:10501000914311F0803F04BF50F8042FF6E710F8D9
:10502000011B11B110F8011BFBE7C01A704700000B
:10503000C9B2830706D0521E22D310F8013B994211
:10504000F7D11FE0083A13D302F1040241EA01212B
:1050500041EA014150F8043B121F21BF4B40A3F12C
:10506000013C2CEA030C1CF0803FF3D0C9B2001FB6
:10507000083210F8013B521E28BF91EA030FF8D8FE
:1050800018BF0120401E70471B4213D1094236D180
:105090002AB18446B0FBF2F002FB10C2704700F068
:1050A00039B9FCD30022002370470B000200002115
:1050B00000207047904271EB030CF6D370B5B1FA43
:1050C00081F4B3FA83F52C1BA340C4F1200532FA16
:1050D00005F63343A2405FF00046E64002E05B087D
:1050E0005FEA3202841A71EB030524BF2046294689
:1050F0007641F4D302000B003000002170BD012A7C
:10510000CFD970B5140C20D0B1FA81F4B2FA82F57F
:10511000C4F120046419B4F12006D6D3B2405FF084
:105120000044F440002502E052085FEA3303C61A47
:1051300071EB020E24BF3046714664416D41F3D3DA
:1051400002000B002000290070BD0C46B1FBF2F1FB
:1051500002FB11452D0445EA1045B5FBF2F402FBB4
:10516000145580B240EA0545B5FBF2F002FB10523F
:1051700040EA044070BD30B4436803F000420121AE
:105180001B031B0B436004BF0368002B08D10DE019
:105190000368DD0F45EA440444605B000360491E78
:1051A0004468E302F4D523031B0B436043681A43AE
:1051B0004260084630BC70474FF4001C1CEB410FA6
:1051C00094BF1CEB430F09E041EA030C50EA4C0C7E
:1051D00052EA0C0C03D28B4208BF8242704714BFC4
:1051E000994290427047000070B504460D466068D1
:1051F000C0F30A5040F2FF71884207D16068000393
:1052000004BF2068002817D0022070BD20B92046B6
:10521000FFF7B1FF012868DA012D0FDB40F2FF71C3
:10522000091A8D420AD36068002847BF0020304920
:1052300000203049C4E90001012070BD4142A9426B
:10524000616806DA6FF31E51401941EA0050606050
:1052500042E0401E63684519012205F1350062F302
:105260001F53352801F00041636003D361600020C3
:10527000206070BD002215F11F0F04DA2268236040
:10528000002020356060684214D0521E256892418B
:10529000C0F12003D2439D4045EAD272256825FA29
:1052A00000F6656805FA03F333432360636823FA65
:1052B00000F5656060680843B2F1004F606003D894
:1052C0000DD12078C0070AD52068401C20602068D6
:1052D00028B96068401C60604FF0FF3070BD6068A6
:1052E000884204BF20680028F6D1002070BD00BFAE
:1052F0000000F0FF0000F07F91FBF2F303FB1211BE
:10530000C0E9003170470000014800F004B8000017
:105310002005FF1F704770470000000000000000DC
:105320000000000000000000000000F80000000085
:10533000000000333000000000100C06100C0600C6
:10534000000000000000000040C07840C07840002D
:10535000043F04043F040400007088FC083000008F
:10536000001820FF211E0000F008F000E0180000E7
:1053700000211C031E211E0000F0088870000000A0
:105380001E2123241927211010160E0000000000F2
:105390000000000000000000000000E0180402000F
:1053A000000000071820400000020418E000000080
:1053B0000040201807000000404080F0804040007E
:1053C0000202010F01020200000000F000000000D4
:1053D0000101011F010101000000000000000000A8
:1053E00080B070000000000000000000000000001D
:1053F00000010101010101010000000000000000A6
:105400000030300000000000000000008060180440
:10541000006018060100000000E010080810E0001D
:10542000000F102020100F00001010F800000000E6
:105430000020203F2020000000700808088870002D
:1054400000302824222130000030088888483000AD
:105450000018202020110E000000C02010F80000CD
:1054600000070424243F240000F808888808080066
:105470000019212020110E0000E01088881800007B
:10548000000F112020110E0000380808C83808004D
:105490000000003F000000000070880808887000CD
:1054A000001C222121221C0000E010080810E0004E
:1054B0000000312222110F00000000C0C0000000D7
:1054C00000000030300000000000008000000000FC
:1054D00000008060000000000000804020100800F4
:1054E00000010204081020004040404040404000BD
:1054F0000404040404040400000810204080000098
:105500000020100804020100007048080808F0009C
:105510000000003036010000C030C828E810E0006C
:105520000718272423140B000000C038E0000000F7
:10553000203C23020227382008F888888870000061
:10554000203F202020110E00C03008080808380035
:10555000071820202010080008F808080810E000AC
:10556000203F202020100F0008F88888E80810004D
:10557000203F20202320180008F88888E808100021
:10558000203F200003000000C03008080838000059
:1055900007182020221E020008F808000008F8085A
:1055A000203F210101213F20000808F808080000E1
:1055B0000020203F2020000000000808F808080014
:1055C000C08080807F00000008F888C0281808008C
:1055D000203F20012638200008F8080000000000C5
:1055E000203F20202020300008F8F800F8F80800BC
:1055F000203F003F003F200008F830C00008F808B6
:10560000203F200007183F00E01008080810E000C5
:105610000F10202020100F0008F808080808F000DC
:10562000203F210101010000E01008080810E000FF
:105630000F18242438504F0008F888888888700094
:10564000203F2000030C3020007088080808380034
:105650000038202121221C00180808F8080818002A
:105660000000203F2000000008F808000008F808AB
:10567000001F202020201F000878880000C838085C
:10568000000007380E010000F80800F80008F800D4
:10569000033C0700073C030008186880806818086E
:1056A00020302C03032C30200838C800C8380800EC
:1056B0000000203F2000000010080808C83808003B
:1056C0002038262120201800000000FE02020200DF
:1056D0000000007F40404000000C30C0000000008F
:1056E000000000010638C00000020202FE000000B7
:1056F000004040407F00000000000402020204005D
:105700000000000000000000000000000000000099
:105710008080808080808080000202040000000081
:105720000000000000000000000080808080000079
:105730000019242222223F2008F800808000000067
:10574000003F112020110E0000000080808000002A
:10575000000E112020201100000000808088F80039
:10576000000E112020103F2000008080808000006B
:10577000001F222222221300008080F088888818CF
:105780000020203F202000000000808080808000DA
:10579000006B94949493600008F80080808000006F
:1057A000203F210000203F2000809898000000004A
:1057B0000020203F2020000000000080989800007A
:1057C00000C08080807F000008F80000808080009A
:1057D000203F24022D302000000808F800000000BF
:1057E0000020203F2020000080808080808080007A
:1057F000203F20003F20003F80800080808000000C
:10580000203F210000203F20000080808080000099
:10581000001F202020201F008080008080000000CA
:1058200080FFA12020110E000000008080808000F9
:10583000000E112020A0FF808080800080808000EA
:1058400020203F2120000100000080808080800017
:105850000033242424241900008080E0808000008C
:105860000000001F202000008080000000808000D9
:10587000001F202020103F2080808000008080803A
:1058800000010E30080601008080008000808080CA
:105890000F300C030C300F000080800080808000EF
:1058A0000020312E0E31200080808000008080801A
:1058B00080818E70180601000080808080808000CA
:1058C0000021302C2221300000000000807C0202E8
:1058D00000000000003F404000000000FF0000000A
:1058E00000000000FF0000000002027C80000000B9
:1058F0000040403F000000000006010102020404D5
:105900000000000000000000000000000000000097
:105910000000000000000000000000000000000087
:105920000000000000000000000000000000000077
:1059300000003F3F3F3F3FC0C0C0C0C0000000006C
:105940000000000000000000000000000000000057
:105950000000000000000000000000000000000047
:105960000000000000000000000000000000000037
:10597000000080C0E0E0F0F0F0F00000000000F077
:10598000F0F0F0F0F0F0F0F0F0F0F0F0F0F0F0F017
:10599000F0F0F0F0F0F0F0F0F0F0F0F0F0F0F007F0
:1059A0000707070700000000000000000000E0F00B
:1059B000F0F0000000000060E0E0C0000000000027
:1059C00000C0E0E0E0606060607070303000E0E0F7
:1059D000E0E02060E0E0E040F0FEFFFFFFFFFFFFBF
:1059E000FFFF0000000000FFFFFFFFFFFFFFFFFFC2
:1059F0001F1F1F1F1F1F1F1F1F1F1F1F1F1F1F1FB7
:105A00001F1F1FFFFFFFFFFEFEFEFEFE0000000641
:105A100006060606C6FEFFFF1F070606FEFEFE067A
:105A2000060686C66606000000FFFFFFFF3030F066
:105A3000F0F0F0303000FFFFFFFF4078FFFFFF8005
:105A4000FFFFFFFFFFFFFFFFFFFF0000000000FF61
:105A5000FFFFFFFFFFFFFFFF00000000000000004E
:105A60000000000000000000000000FFFFFFFFFF3B
:105A7000FFFFFFFF0000000000C0F0FEFF3F0780B7
:105A8000C0C06070FFFFFF0E0703010000000000B0
:105A900000FFFFFFFF0000FFFFFFFF000000FFFF10
:105AA000FFFF0000FFFFFFFFFFFFFFFFFFFFFFFF04
:105AB000FFFF0000000000FFFFFFFFFFFFFFFFFFF1
:105AC00000000000000000000000000000000000D6
:105AD000000080FFFFFFFFFFFFFFFFFF000000044B
:105AE0000F0F07030000030101000000070F0F0E56
:105AF0000C0C0C0C0C0C0000040707070706020333
:105B0000030303030300070F0F070303030301004D
:105B1000FFFFFFFFFFFFFFFFFFFF0000000000FF90
:105B2000FFFFFFFFFFFFFFFFFFFFFFFFFFFFFFFF85
:105B3000FFFFFFFFFFFFFFFFFFFFFFFFFFFFFFFF75
:105B4000FFFFFFFF000000424242FEFEFFE743432B
:105B50004100061E3E3C3000FFFFFFFF000000003A
:105B60004040FFFFFFFF4000080808080808FFFF4B
:105B7000FFFF0808080808087FFFFFFFFFFFFFFF7F
:105B8000FFFFC0C0C0C0C0C1C1C1C1C1C1C1C1C18E
:105B9000C1C1C1C1C1C1C1C1C1C1C1C1C101010135
:105BA000010101FFFFFFFFFFFFFFFFFF000000FFFC
:105BB000FF00FFFFFF00FEFF0000030F1F1E180085
:105BC000FFFFFFFF808000008080FFFFFFFF40009D
:105BD00000021A7AFAF2E38383C3F2FE7E3E0E00DD
:105BE00000070F1F3F3F7F7F7F7F7F7F7F7F7F7F0C
:105BF0007F7F7F7F7F7F7F7F7F7F7F7F7F7F7F7FB5
:105C00007F7F7F7F7F0000000000007F7F7F3F3F1E
:105C10001F0F07000000007F7F007F7F7F003F7F16
:105C200000000301010101017F7F7F7F0000000070
:105C300040607F7F7F3F000000406070787D3F1FA5
:105C40001F3F7F787060400020202020FF00000070
:105C5000FF4020301810301808047F0000003F403B
:105C6000404040780404E424242526242424E40627
:105C700004002010190D41817F0101050D3810002D
:105C80001010101010FF10F0121CD0101010402037
:105C9000100C0310083F4241404040700000FE8459
:105CA00084848482828282C0800020203F20202041
:105CB00020203F202020302000FC2424E22222004B
:105CC000FE0222528E02101F10080F080800FF006B
:105CD0000808100F129272FE51910022CC0000FFB2
:105CE0000000020100FF00040404020202FF01019F
